:020000040800F2
:100000006807002089010008D30D0008EF0C0008E4
:10001000D10D000813030008A10F00080000000024
:10002000000000000000000000000000D70D0008E4
:100030001503000800000000D50D0008D90D0008C8
:10004000A3010008A3010008A3010008A301000800
:10005000A3010008A3010008A3010008A3010008F0
:10006000A3010008A3010008A3010008A3010008E0
:10007000A3010008A3010008A3010008A3010008D0
:10008000A3010008A3010008A3010008A3010008C0
:10009000A3010008A3010008A3010008A3010008B0
:1000A000A3010008A3010008A3010008A3010008A0
:1000B000A3010008A3010008A3010008A301000890
:1000C000A3010008A3010008A3010008A301000880
:1000D000A3010008A3010008A3010008A301000870
:1000E000A3010008A3010008A301000800F002F822
:1000F00000F03AF80AA090E8000C82448344AAF188
:100100000107DA4501D100F02FF8AFF2090EBAE885
:100110000F0013F0010F18BFFB1A43F0010318473B
:10012000E010000000110000103A24BF78C878C128
:10013000FAD8520724BF30C830C144BF04680C60ED
:10014000704700000023002400250026103A28BF35
:1001500078C1FBD8520728BF30C148BF0B60704739
:100160001FB51FBD10B510BD00F099F81146FFF77F
:10017000F7FF00F05FFF00F0B7F803B4FFF7F2FFFE
:1001800003BC00F0BFF80000094880470948004759
:10019000FEE7FEE7FEE7FEE7FEE7FEE7FEE7FEE737
:1001A000FEE7FEE704480549054A064B7047000094
:1001B0003D0E0008ED0000086801002068070020DF
:1001C00068030020680300204FF0000200B51346CA
:1001D00094469646203922BFA0E80C50A0E80C5067
:1001E000B1F12001BFF4F7AF090728BFA0E80C5018
:1001F00048BF0CC05DF804EB890028BF40F8042B11
:1002000008BF704748BF20F8022B11F0804F18BF7D
:1002100000F8012B704700004FF0013C50F8042B10
:1002200051F8043B9A4221D1A2EB0C03934313EA09
:10023000CC1317D150F8042B51F8043B9A4215D136
:10024000A2EB0C03934313EACC130BD150F8042B0D
:1002500051F8043B9A4209D1A2EB0C03934313EAF1
:10026000CC13DBD04FF00000704700BFD01A01BAAA
:10027000B1FA81F101F0180122FA01F0CB40C1F18D
:100280002001DBB2C0B2C01A2CFA01F3D11A91439B
:1002900011EAC311E6D17047704770477047754641
:1002A00000F02CF8AE4605006946534620F00700E2
:1002B000854618B020B5FFF775FFBDE820404FF028
:1002C00000064FF000074FF000084FF0000B21F040
:1002D0000701AC46ACE8C009ACE8C009ACE8C0090D
:1002E000ACE8C0098D46704710B50446AFF30080F6
:1002F0002046BDE81040FFF740BF000000487047AF
:100300000401002001491820ABBEFEE726000200D0
:100310007047FEE7704772B6FEE700002DE9F84F20
:10032000DFF8B891002409F1040A0AF1040B23460E
:100330000F270BF1040EC9E00125A5402A40AA426F
:100340007DD1674ED1F804C0ACEB0608B44532D07D
:1003500014DCBCF1030F3AD009DCBCF1000F2AD049
:10036000BCF1010F1CD0BCF1020F31D11DE0BCF17A
:10037000110F17D0BCF1120F2AD119E0B8F5881F60
:1003800019D006DCB8F5803F15D0B8F5801F1FD115
:1003900011E0B8F5001F0ED0B8F5041F18D10AE01F
:1003A000CB6815E0CB681B1D12E0CB6808330FE06B
:1003B000CB680C330CE08B682BB1012B4FF008039A
:1003C00003D0456104E0042302E0056100E000235E
:1003D000FF2A01D8064601E000F104064FEA840531
:1003E00001D9A5F12005D6F8008007FA05FC28EA16
:1003F0000C0803FA05F548EA0508C6F800804D68C0
:10040000ED0062D5374DAE6946F00106AE61AD69CB
:1004100024F0030605F001050095334D06EB050CAD
:10042000DCF80850A607360F07FA06F825EA080593
:10043000DFF8B880404503D14FF0000817E044E0F2
:10044000DFF8AC80404502D14FF001080FE0DFF843
:10045000A480404502D14FF0020808E0DFF8988000
:10046000404502D14FF0030801E04FF0040808FABC
:1004700006F848EA0508CCF808804D68D9F800600D
:10048000ED034D4601D5164300E096432E604D68BE
:10049000DAF80060AD03554601D5164300E09643F7
:1004A0002E604D68DBF80060ED025D4601D5164315
:1004B00000E096432E604D68DEF80060AD027546A0
:1004C00001D5164300E096432E60641C0D682A4651
:1004D000E5407FF431AFBDE8F88F00000004014033
:1004E000000011100010024000000140000801400F
:1004F000000C0140001001400014014080680840D9
:1005000000D001207047C2680A4201D041617047A3
:10051000016170470AB1016170470904FBE70000FF
:100520000148806870470000B400002002488168DC
:100530000278114481607047B4000020074810B56C
:10054000016841F010010160032000F067F80F20FE
:1005500000F006F800F024F8002010BD0020024052
:1005600070B50D4D04464FF47A712878B1FBF0F068
:100570000A490968B1FBF0F000F0DEFA48B9102C26
:1005800007D200222146501E00F028F800206C609F
:1005900070BD012070BD0000B4000020C00000202C
:1005A0000C4808B5816941F001018161816901F060
:1005B00001010091C16941F08051C161C06900F041
:1005C000805000900448416821F0E06141F00071E2
:1005D000416008BD0010024000000140F0B40E4B25
:1005E0001B680C46C3F30223C3F10705042D00D991
:1005F0000425191D072901D2002300E0DB1E012676
:1006000006FA05F1491E214099409E40761E16408B
:100610003143F0BC00F0C5BC0CED00E0064900F031
:10062000070208684FF6FF03184040EA0220034A19
:1006300010430860704700000CED00E00000FA0570
:100640002DE9F0470F46050061D0434E306800F0B9
:100650000700B84209D2306820F007003843306004
:10066000306800F00700B84251D128683B4C810740
:1006700012D5400703D5606840F4E06060602878D8
:10068000000703D5606840F4605060606068A96846
:1006900020F0F000084360602878C00728D0686820
:1006A000012810D02168022810D0890700292EDAED
:1006B000616821F0030101436160FFF731FF80466B
:1006C00041F288390DE021688903EFE78901EDE700
:1006D000FFF726FFA0EB0801494502D90320BDE83A
:1006E000F0876068696800F00C00B0EB810FEFD113
:1006F000306800F00700B8420BD9306820F00700DE
:1007000038433060306800F00700B84201D0012063
:10071000E5E72878400705D56068E96820F4E060DF
:10072000084360602878000706D56068296920F4CE
:10073000605040EAC100606000F038F86168084A23
:10074000C1F30311515CC8400649086006480068BF
:10075000FFF706FF0020C2E7002002400010024021
:1007600000110008C0000020B8000020044805491E
:1007700000684968044AC1F30221515CC8407047CF
:10078000C000002000100240101100080448054974
:1007900000684968044AC1F3C221515CC8407047EF
:1007A000C0000020001002401011000812A185B006
:1007B0000FC98DE80F0014A0144A00680490516816
:1007C000134801F00C03042B10D0082B0ED1C1F3F9
:1007D0008343C9031DF803000AD5516804AAC1F375
:1007E0004041515C0A4A5043B0FBF1F005B07047FC
:1007F00008494843FAE70000020304050607080910
:100800000A0B0C0D0E0F1010010200000010024028
:1008100000127A0000093D002DE9F84F040070D065
:100820002078C04DC00749D06868C0F38100012816
:1008300007D06868C0F38100022809D16868C00346
:1008400006D52868800339D560680028E7D035E0F0
:100850006068B0F5803F0BD010B1B0F5A02F11D07B
:10086000286820F480302860286820F4802002E086
:10087000286840F480302860606890B1FFF750FE2F
:1008800006460AE0286840F480202860F0E700BFB0
:10089000FFF746FE801B642873D828688003F7D5CD
:1008A0000CE0FFF73DFE064605E000BFFFF738FE0F
:1008B000801B6428F0D828688003F7D420789A4EEB
:1008C00080074FF001094FF0000839D5686810F033
:1008D0000C0F07D06868C0F38100022809D168684E
:1008E000C00306D42868800714D52069012808D1E0
:1008F00010E02069B0B1C6F80090FFF711FE07467E
:1009000005E00AE1FFF70CFEC01B0228C4D82868E6
:100910008007F7D52868616920F0F80040EAC10037
:1009200028600DE0C6F80080FFF7FAFD074604E0F6
:10093000FFF7F6FDC01B022823D828688007F7D4EC
:10094000207800072CD57948A169D9B1C0F800906A
:10095000FFF7E6FD074604E0FFF7E2FDC01B0228B3
:100960000FD8686A8007F7D571484FF4FA510068CC
:10097000B0FBF1F0009000BF0098411E0091FAD248
:100980000EE080E0C0F80080FFF7CAFD074604E0F3
:10099000FFF7C6FDC01B022875D8686A8007F7D428
:1009A0002078400760D5E8690027C00008D4E869CE
:1009B00040F08050E861E869012700F08050009025
:1009C0005C480168C90513D40168834641F480710D
:1009D0000160FFF7A5FD824606E000BFFFF7A0FD1E
:1009E000A0EB0A0064284ED8DBF80000C005F5D55E
:1009F000E06801280AD008B1052813D0286A20F041
:100A000001002862286A20F0040002E0286A40F011
:100A100001002862E06841F2883B98B1FFF780FD51
:100A200082460BE0286A40F004002862EEE700BF2F
:100A3000FFF776FDA0EB0A0159455AD8286A8007CE
:100A4000F6D50CE0FFF76CFD824605E0FFF768FD88
:100A5000A0EB0A0159454CD8286A8007F6D41FB18B
:100A6000E86920F08050E861E06988B36968C1F303
:100A70008101022944D00228C6F8608004D0FFF723
:100A80004FFD044638E034E0FFF74AFD074604E036
:100A9000FFF746FDC01B02282BD828688001F7D439
:100AA000206AB0F5803F05D16868A16820F4003065
:100AB00008436860D4E908010843696821F47411A7
:100AC00008436860C6F86090FFF72AFD044606E018
:100AD00025E000BFFFF724FD001B022809D8286885
:100AE0008001F7D51BE000BFFFF71AFD001B0228AD
:100AF00002D90320BDE8F88F28688001F4D40EE005
:100B00000128F7D06868226A00F48031914204D14C
:100B1000616A00F47010884201D00120EAE70020E9
:100B2000E8E7000000100240000042428004424218
:100B3000C00000200070004010B5401EB0F1807F62
:100B400001D3012010BD4FF0E02460610F21601738
:100B500000F027FA0020A06107202061002010BDCE
:100B600070B5040004D094F83900002510B106E0F7
:100B7000012070BD84F83850204600F023F824206E
:100B800084F839002068C16821F40051C160204612
:100B900000F078F92068016921F490410161206832
:100BA000416921F02A0141612068C16841F4005186
:100BB000C160E563202084F8390084F83A00002001
:100BC00070BD000030B585B00024009401940294FB
:100BD000039400681449884223D11448C16941F440
:100BE0000031C161C16901F400310491816941F0B2
:100BF0000401816180690E4D00F00400049004201E
:100C00000090022001900320039069462846FFF7D8
:100C100085FB0820CDE90004694628460294FFF7C9
:100C20007DFB05B030BD00000044004000100240D4
:100C3000000801402DE9F843044690F839001F46AA
:100C400016460D46202850D1A5B19EB194F8380023
:100C500001284AD0012084F838004FF00008C4F879
:100C60003C80212084F83900FFF75AFCA684814695
:100C7000E68426E00120BDE8F883E08C401EE08495
:100C8000A0684B46B0F5805F4FF000024FF0800146
:100C90002046009703D000F051F9E8B90DE000F0CC
:100CA0004DF9C8B928882168C0F308004860206958
:100CB00008B16D1C05E0AD1C03E0216815F8010BBF
:100CC0004860E08C0028D8D14B46002240212046C5
:100CD000009700F033F908B10320CCE7202084F816
:100CE000390084F838800020C5E70220C3E7FEE71A
:100CF0002DE9F04186B00024244800940194029428
:100D00000394816941F020018161816901F0200132
:100D10000491816941F004018161816901F004015C
:100D20000491816941F0080181618069184F00F0E8
:100D300008004FF400450490002229463846FFF78A
:100D4000E9FBDFF85080002208214046FFF7E2FB74
:100D50000095022601250396CDE9015469463846DF
:100D6000FFF7DCFA0820CDE90005CDE90246694627
:100D70004046FFF7D3FA6020CDE9000469464046BB
:100D80000294FFF7CBFA06B0BDE8F08100100240F4
:100D900000080140000C01400C4810B50A490160F0
:100DA0004FF4E1314160002181600C22C160C0E953
:100DB00004128161C161FFF7D3FE002803D0BDE8B2
:100DC0001040FFF7A8BA10BD00440040C400002046
:100DD000FEE7FEE770477047FFF7A8BB30B58FB05E
:100DE00028216846FFF7F0F914210AA8FFF7ECF96B
:100DF00001210804CDE90010002402940225049189
:100E0000CDE907504FF4E01009906846FFF704FD64
:100E100008B172B6FEE70F20CDE90A054FF48060F5
:100E2000CDE90C4002210AA80E94FFF709FC002826
:100E300001D072B6FEE70FB030BD00000D4801686A
:100E400041F00101016041680B4A114041600168B5
:100E50000A4A11400160016821F480210160416863
:100E600021F4FE0141604FF41F0181600449C00379
:100E700008607047001002400000FFF8FFFFF6FE18
:100E800008ED00E02DE9F041044600680169E268E0
:100E900021F44051114301612169A068084361694F
:100EA00008432168CA6841F20C639A430243CA604E
:100EB00020684169A26921F44071114341611E49D2
:100EC000206864253226884202D1FFF75FFC01E0EA
:100ED000FFF74CFC00EBC00101EB001160686FF004
:100EE00018078000B1FBF0F2B2FBF5F2B1FBF0F3B2
:100EF0007A4303EB8202B1FBF0F306EB0212B2FB82
:100F0000F5F2B3FBF5F302F0F00202EB0312B1FBD2
:100F1000F0F3B1FBF0F0B0FBF5F0784303EB8000A9
:100F200006EB0010B0FBF5F0216800F00F00104454
:100F30008860BDE8F0810000003801402DE9F041F3
:100F4000984617460E460446069D1DE0681C1BD0B9
:100F50002DB1FFF7E5FAA0EB0800A84214D92068EC
:100F6000C16821F4D071C1602068416921F001019C
:100F70004161202084F8390084F83A00002084F888
:100F800038000320BDE8F0812068006836EA0000E0
:100F900004D00020B842D9D00020F3E70120F9E7BF
:100FA000FEE70907090E002804DB00F1E02080F8C5
:100FB0000014704700F00F0000F1E02080F8141DCD
:100FC00070470000044B2D22A3F11C0108691A543C
:100FD000401C0861704700001C000020044B2E22BA
:100FE000A3F11C0108691A54401C086170470000F5
:100FF0001C00002038B50D4D002405F11C002C61AB
:1010000000F064F828708DF800006423012269461E
:101010000748FFF70FFE05F11C003021AC610155B8
:10102000641C052CFBD3AC6138BD0000000000201F
:10103000C4000020FFF782FAFFF7D0FEFFF758FE4A
:10104000FFF7AAFE1F4E01271F4C00254021304606
:10105000FFF754FA30B9E06820B9FFF761FA65612B
:10106000C4E9020740213046FFF748FA012816D1AB
:10107000E068012813D1FFF753FA67616060A16847
:10108000401AA0F13301B1F56D7F02D8FFF7A6FF3A
:1010900004E0B0F57A7F01D9FFF794FFE56020699D
:1010A00005280AD0FFF73CFA6168401A40F6B831CB
:1010B0008842CBD960690128C8D1FFF79BFF6561E1
:1010C000C4E70000000C01400000002070B50A4D8C
:1010D00006460024304655F82410FFF79DF818B155
:1010E000641C242CF6DB70BD08210448FFF70BFAC2
:1010F0004134E0B270BD000024000020000C01402B
:1011000000000000000000000102030406070809B7
:1011100000000000010203042D2D2D2D2D000000E4
:101120002E2D2D2D2D0000002E2E2D2D2D000000FA
:101130002E2D2D2D000000002D2D2D002D2E2D2DBE
:10114000000000002E2E2E2D2D0000002E2D2D0033
:101150002D2D00002D2D2E2D000000002D2E2D00F8
:101160002D2E2E2D000000002E2E2E2E2D000000E4
:101170002E2E2E2D000000002E2E2D002E2D0000D4
:101180002D0000002D2D2D2D2E0000002E2D2D2E9A
:10119000000000002D2D2E002D2E2D2E0000000011
:1011A0002E2E2D2E000000002E2D2E002D2E0000A4
:1011B0002D2D2D2E2E0000002D2D2E2E0000000096
:1011C0002E2D2E2E000000002D2E2E002D2D2E2E29
:1011D0002E0000002D2E2E2E000000002D2E2E2E73
:1011E0002E0000002E2E2E2E2E0000002E2E2E2E33
:1011F000000000002E2E2E002E2E00002E000000DB
:101200002012000800000020C4000000280100088F
:10121000E4120008C4000020A406000044010008F5
:10122000300000000000000000000000000000008E
:1012300000000000000000000000000000000000AE
:10124000000000007C110008D4110008981100086B
:10125000C8110008FC110008A01100089411000832
:10126000EC110008F8110008301100085C110008AA
:10127000C011000850110008AC1100083811000816
:101280008C11000854110008A8110008F41100087E
:101290008011000878110008701100084C11000836
:1012A000601100083C110008B8110008181100086E
:1012B00020110008281100084411000868110008D6
:1012C000E4110008DC110008CC110008B01100087E
:1012D0008411000801000000100000000000000060
:0412E0000024F400F2
:04000005080000ED02
:00000001FF
